{
	"data": {
		"bytecode": {
			"linkReferences": {},
			"object": "6101ef610053600b82828239805160001a607314610046577f4e487b7100000000000000000000000000000000000000000000000000000000600052600060045260246000fd5b30600052607381538281f3fe73000000000000000000000000000000000000000030146080604052600436106100565760003560e01c8063405bf2751461005b5780636cd2c30a14610079578063b4797da214610097578063c214be59146100b5575b600080fd5b6100636100d3565b604051610070919061019e565b60405180910390f35b6100816100f7565b60405161008e919061019e565b60405180910390f35b61009f61011b565b6040516100ac919061019e565b60405180910390f35b6100bd61013f565b6040516100ca919061019e565b60405180910390f35b7f973bb64086f173ec8099b7ed3d43da984f4a332e4417a08bc6a286e6402b058681565b7f8ae85d849167ff996c04040c44924fd364217285e4cad818292c7ac37c0a345b81565b7faaaebeba3810b1e6b70781f14b2d72c1cb89c0b2b320c43bb67ff79f562f5ff481565b7f73ad2146b3d3a286642c794379d750360a2d53a3459a11b3e5d6cc900f55f44a81565b60007fffffffff0000000000000000000000000000000000000000000000000000000082169050919050565b61019881610163565b82525050565b60006020820190506101b3600083018461018f565b9291505056fea2646970667358221220b3f3fafed9db0367a72b4a433fdd6bbc4eb35584b3e87302bc498cc4b42c1a2564736f6c63430008110033",
			"opcodes": "PUSH2 0x1EF PUSH2 0x53 PUSH1 0xB DUP3 DUP3 DUP3 CODECOPY DUP1 MLOAD PUSH1 0x0 BYTE PUSH1 0x73 EQ PUSH2 0x46 JUMPI PUSH32 0x4E487B7100000000000000000000000000000000000000000000000000000000 PUSH1 0x0 MSTORE PUSH1 0x0 PUSH1 0x4 MSTORE PUSH1 0x24 PUSH1 0x0 REVERT JUMPDEST ADDRESS PUSH1 0x0 MSTORE PUSH1 0x73 DUP2 MSTORE8 DUP3 DUP2 RETURN INVALID PUSH20 0x0 ADDRESS EQ PUSH1 0x80 PUSH1 0x40 MSTORE PUSH1 0x4 CALLDATASIZE LT PUSH2 0x56 JUMPI PUSH1 0x0 CALLDATALOAD PUSH1 0xE0 SHR DUP1 PUSH4 0x405BF275 EQ PUSH2 0x5B JUMPI DUP1 PUSH4 0x6CD2C30A EQ PUSH2 0x79 JUMPI DUP1 PUSH4 0xB4797DA2 EQ PUSH2 0x97 JUMPI DUP1 PUSH4 0xC214BE59 EQ PUSH2 0xB5 JUMPI JUMPDEST PUSH1 0x0 DUP1 REVERT JUMPDEST PUSH2 0x63 PUSH2 0xD3 JUMP JUMPDEST PUSH1 0x40 MLOAD PUSH2 0x70 SWAP2 SWAP1 PUSH2 0x19E JUMP JUMPDEST PUSH1 0x40 MLOAD DUP1 SWAP2 SUB SWAP1 RETURN JUMPDEST PUSH2 0x81 PUSH2 0xF7 JUMP JUMPDEST PUSH1 0x40 MLOAD PUSH2 0x8E SWAP2 SWAP1 PUSH2 0x19E JUMP JUMPDEST PUSH1 0x40 MLOAD DUP1 SWAP2 SUB SWAP1 RETURN JUMPDEST PUSH2 0x9F PUSH2 0x11B JUMP JUMPDEST PUSH1 0x40 MLOAD PUSH2 0xAC SWAP2 SWAP1 PUSH2 0x19E JUMP JUMPDEST PUSH1 0x40 MLOAD DUP1 SWAP2 SUB SWAP1 RETURN JUMPDEST PUSH2 0xBD PUSH2 0x13F JUMP JUMPDEST PUSH1 0x40 MLOAD PUSH2 0xCA SWAP2 SWAP1 PUSH2 0x19E JUMP JUMPDEST PUSH1 0x40 MLOAD DUP1 SWAP2 SUB SWAP1 RETURN JUMPDEST PUSH32 0x973BB64086F173EC8099B7ED3D43DA984F4A332E4417A08BC6A286E6402B0586 DUP2 JUMP JUMPDEST PUSH32 0x8AE85D849167FF996C04040C44924FD364217285E4CAD818292C7AC37C0A345B DUP2 JUMP JUMPDEST PUSH32 0xAAAEBEBA3810B1E6B70781F14B2D72C1CB89C0B2B320C43BB67FF79F562F5FF4 DUP2 JUMP JUMPDEST PUSH32 0x73AD2146B3D3A286642C794379D750360A2D53A3459A11B3E5D6CC900F55F44A DUP2 JUMP JUMPDEST PUSH1 0x0 PUSH32 0xFFFFFFFF00000000000000000000000000000000000000000000000000000000 DUP3 AND SWAP1 POP SWAP2 SWAP1 POP JUMP JUMPDEST PUSH2 0x198 DUP2 PUSH2 0x163 JUMP JUMPDEST DUP3 MSTORE POP POP JUMP JUMPDEST PUSH1 0x0 PUSH1 0x20 DUP3 ADD SWAP1 POP PUSH2 0x1B3 PUSH1 0x0 DUP4 ADD DUP5 PUSH2 0x18F JUMP JUMPDEST SWAP3 SWAP2 POP POP JUMP INVALID LOG2 PUSH5 0x6970667358 0x22 SLT KECCAK256 0xB3 RETURN STATICCALL INVALID 0xD9 0xDB SUB PUSH8 0xA72B4A433FDD6BBC 0x4E 0xB3 SSTORE DUP5 0xB3 0xE8 PUSH20 0x2BC498CC4B42C1A2564736F6C63430008110033 "
		},
		"gasEstimates": {
			"creation": {
				"codeDepositCost": "99000",
				"executionCost": "172",
				"totalCost": "99172"
			},
			"external": {
				"ERC1155_ASSET_CLASS()": "297",
				"ERC20_ASSET_CLASS()": "319",
				"ERC721_ASSET_CLASS()": "363",
				"ETH_ASSET_CLASS()": "341"
			},
			"internal": {
				"hash(struct LibAsset.Asset memory)": "infinite",
				"hash(struct LibAsset.AssetType memory)": "infinite"
			}
		},
		"methodIdentifiers": {
			"ERC1155_ASSET_CLASS()": "405bf275",
			"ERC20_ASSET_CLASS()": "6cd2c30a",
			"ERC721_ASSET_CLASS()": "c214be59",
			"ETH_ASSET_CLASS()": "b4797da2"
		}
	},
	"abi": [
		{
			"inputs": [],
			"name": "ERC1155_ASSET_CLASS",
			"outputs": [
				{
					"internalType": "bytes4",
					"name": "",
					"type": "bytes4"
				}
			],
			"stateMutability": "view",
			"type": "function"
		},
		{
			"inputs": [],
			"name": "ERC20_ASSET_CLASS",
			"outputs": [
				{
					"internalType": "bytes4",
					"name": "",
					"type": "bytes4"
				}
			],
			"stateMutability": "view",
			"type": "function"
		},
		{
			"inputs": [],
			"name": "ERC721_ASSET_CLASS",
			"outputs": [
				{
					"internalType": "bytes4",
					"name": "",
					"type": "bytes4"
				}
			],
			"stateMutability": "view",
			"type": "function"
		},
		{
			"inputs": [],
			"name": "ETH_ASSET_CLASS",
			"outputs": [
				{
					"internalType": "bytes4",
					"name": "",
					"type": "bytes4"
				}
			],
			"stateMutability": "view",
			"type": "function"
		}
	]
}