{
	"data": {
		"bytecode": {
			"linkReferences": {},
			"object": "61059a610053600b82828239805160001a607314610046577f4e487b7100000000000000000000000000000000000000000000000000000000600052600060045260246000fd5b30600052607381538281f3fe73000000000000000000000000000000000000000030146080604052600436106100355760003560e01c80639e8e11661461003a575b600080fd5b610054600480360381019061004f91906104d9565b610056565b005b808260e00190600281111561006e5761006d610535565b5b9081600281111561008257610081610535565b5b815250505050565b6000604051905090565b600080fd5b600080fd5b600080fd5b6000601f19601f8301169050919050565b7f4e487b7100000000000000000000000000000000000000000000000000000000600052604160045260246000fd5b6100ec826100a3565b810181811067ffffffffffffffff8211171561010b5761010a6100b4565b5b80604052505050565b600061011e61008a565b905061012a82826100e3565b919050565b600080fd5b6000819050919050565b61014781610134565b811461015257600080fd5b50565b6000813590506101648161013e565b92915050565b600073ffffffffffffffffffffffffffffffffffffffff82169050919050565b60006101958261016a565b9050919050565b6101a58161018a565b81146101b057600080fd5b50565b6000813590506101c28161019c565b92915050565b60007fffffffff0000000000000000000000000000000000000000000000000000000082169050919050565b6101fd816101c8565b811461020857600080fd5b50565b60008135905061021a816101f4565b92915050565b600080fd5b600080fd5b600067ffffffffffffffff821115610245576102446100b4565b5b61024e826100a3565b9050602081019050919050565b82818337600083830152505050565b600061027d6102788461022a565b610114565b90508281526020810184848401111561029957610298610225565b5b6102a484828561025b565b509392505050565b600082601f8301126102c1576102c0610220565b5b81356102d184826020860161026a565b91505092915050565b6000604082840312156102f0576102ef61009e565b5b6102fa6040610114565b9050600061030a8482850161020b565b600083015250602082013567ffffffffffffffff81111561032e5761032d61012f565b5b61033a848285016102ac565b60208301525092915050565b60006040828403121561035c5761035b61009e565b5b6103666040610114565b9050600082013567ffffffffffffffff8111156103865761038561012f565b5b610392848285016102da565b60008301525060206103a684828501610155565b60208301525092915050565b600381106103bf57600080fd5b50565b6000813590506103d1816103b2565b92915050565b600061010082840312156103ee576103ed61009e565b5b6103f9610100610114565b9050600061040984828501610155565b600083015250602061041d848285016101b3565b602083015250604082013567ffffffffffffffff8111156104415761044061012f565b5b61044d84828501610346565b6040830152506060610461848285016101b3565b606083015250608082013567ffffffffffffffff8111156104855761048461012f565b5b61049184828501610346565b60808301525060a06104a584828501610155565b60a08301525060c06104b984828501610155565b60c08301525060e06104cd848285016103c2565b60e08301525092915050565b600080604083850312156104f0576104ef610094565b5b600083013567ffffffffffffffff81111561050e5761050d610099565b5b61051a858286016103d7565b925050602061052b858286016103c2565b9150509250929050565b7f4e487b7100000000000000000000000000000000000000000000000000000000600052602160045260246000fdfea26469706673582212202b35b87f15046a820f4ad247c6c4cf162b176d49585f4dc5f5b54c22316d776464736f6c63430008110033",
			"opcodes": "PUSH2 0x59A PUSH2 0x53 PUSH1 0xB DUP3 DUP3 DUP3 CODECOPY DUP1 MLOAD PUSH1 0x0 BYTE PUSH1 0x73 EQ PUSH2 0x46 JUMPI PUSH32 0x4E487B7100000000000000000000000000000000000000000000000000000000 PUSH1 0x0 MSTORE PUSH1 0x0 PUSH1 0x4 MSTORE PUSH1 0x24 PUSH1 0x0 REVERT JUMPDEST ADDRESS PUSH1 0x0 MSTORE PUSH1 0x73 DUP2 MSTORE8 DUP3 DUP2 RETURN INVALID PUSH20 0x0 ADDRESS EQ PUSH1 0x80 PUSH1 0x40 MSTORE PUSH1 0x4 CALLDATASIZE LT PUSH2 0x35 JUMPI PUSH1 0x0 CALLDATALOAD PUSH1 0xE0 SHR DUP1 PUSH4 0x9E8E1166 EQ PUSH2 0x3A JUMPI JUMPDEST PUSH1 0x0 DUP1 REVERT JUMPDEST PUSH2 0x54 PUSH1 0x4 DUP1 CALLDATASIZE SUB DUP2 ADD SWAP1 PUSH2 0x4F SWAP2 SWAP1 PUSH2 0x4D9 JUMP JUMPDEST PUSH2 0x56 JUMP JUMPDEST STOP JUMPDEST DUP1 DUP3 PUSH1 0xE0 ADD SWAP1 PUSH1 0x2 DUP2 GT ISZERO PUSH2 0x6E JUMPI PUSH2 0x6D PUSH2 0x535 JUMP JUMPDEST JUMPDEST SWAP1 DUP2 PUSH1 0x2 DUP2 GT ISZERO PUSH2 0x82 JUMPI PUSH2 0x81 PUSH2 0x535 JUMP JUMPDEST JUMPDEST DUP2 MSTORE POP POP POP POP JUMP JUMPDEST PUSH1 0x0 PUSH1 0x40 MLOAD SWAP1 POP SWAP1 JUMP JUMPDEST PUSH1 0x0 DUP1 REVERT JUMPDEST PUSH1 0x0 DUP1 REVERT JUMPDEST PUSH1 0x0 DUP1 REVERT JUMPDEST PUSH1 0x0 PUSH1 0x1F NOT PUSH1 0x1F DUP4 ADD AND SWAP1 POP SWAP2 SWAP1 POP JUMP JUMPDEST PUSH32 0x4E487B7100000000000000000000000000000000000000000000000000000000 PUSH1 0x0 MSTORE PUSH1 0x41 PUSH1 0x4 MSTORE PUSH1 0x24 PUSH1 0x0 REVERT JUMPDEST PUSH2 0xEC DUP3 PUSH2 0xA3 JUMP JUMPDEST DUP2 ADD DUP2 DUP2 LT PUSH8 0xFFFFFFFFFFFFFFFF DUP3 GT OR ISZERO PUSH2 0x10B JUMPI PUSH2 0x10A PUSH2 0xB4 JUMP JUMPDEST JUMPDEST DUP1 PUSH1 0x40 MSTORE POP POP POP JUMP JUMPDEST PUSH1 0x0 PUSH2 0x11E PUSH2 0x8A JUMP JUMPDEST SWAP1 POP PUSH2 0x12A DUP3 DUP3 PUSH2 0xE3 JUMP JUMPDEST SWAP2 SWAP1 POP JUMP JUMPDEST PUSH1 0x0 DUP1 REVERT JUMPDEST PUSH1 0x0 DUP2 SWAP1 POP SWAP2 SWAP1 POP JUMP JUMPDEST PUSH2 0x147 DUP2 PUSH2 0x134 JUMP JUMPDEST DUP2 EQ PUSH2 0x152 JUMPI PUSH1 0x0 DUP1 REVERT JUMPDEST POP JUMP JUMPDEST PUSH1 0x0 DUP2 CALLDATALOAD SWAP1 POP PUSH2 0x164 DUP2 PUSH2 0x13E JUMP JUMPDEST SWAP3 SWAP2 POP POP JUMP JUMPDEST PUSH1 0x0 PUSH20 0xFFFFFFFFFFFFFFFFFFFFFFFFFFFFFFFFFFFFFFFF DUP3 AND SWAP1 POP SWAP2 SWAP1 POP JUMP JUMPDEST PUSH1 0x0 PUSH2 0x195 DUP3 PUSH2 0x16A JUMP JUMPDEST SWAP1 POP SWAP2 SWAP1 POP JUMP JUMPDEST PUSH2 0x1A5 DUP2 PUSH2 0x18A JUMP JUMPDEST DUP2 EQ PUSH2 0x1B0 JUMPI PUSH1 0x0 DUP1 REVERT JUMPDEST POP JUMP JUMPDEST PUSH1 0x0 DUP2 CALLDATALOAD SWAP1 POP PUSH2 0x1C2 DUP2 PUSH2 0x19C JUMP JUMPDEST SWAP3 SWAP2 POP POP JUMP JUMPDEST PUSH1 0x0 PUSH32 0xFFFFFFFF00000000000000000000000000000000000000000000000000000000 DUP3 AND SWAP1 POP SWAP2 SWAP1 POP JUMP JUMPDEST PUSH2 0x1FD DUP2 PUSH2 0x1C8 JUMP JUMPDEST DUP2 EQ PUSH2 0x208 JUMPI PUSH1 0x0 DUP1 REVERT JUMPDEST POP JUMP JUMPDEST PUSH1 0x0 DUP2 CALLDATALOAD SWAP1 POP PUSH2 0x21A DUP2 PUSH2 0x1F4 JUMP JUMPDEST SWAP3 SWAP2 POP POP JUMP JUMPDEST PUSH1 0x0 DUP1 REVERT JUMPDEST PUSH1 0x0 DUP1 REVERT JUMPDEST PUSH1 0x0 PUSH8 0xFFFFFFFFFFFFFFFF DUP3 GT ISZERO PUSH2 0x245 JUMPI PUSH2 0x244 PUSH2 0xB4 JUMP JUMPDEST JUMPDEST PUSH2 0x24E DUP3 PUSH2 0xA3 JUMP JUMPDEST SWAP1 POP PUSH1 0x20 DUP2 ADD SWAP1 POP SWAP2 SWAP1 POP JUMP JUMPDEST DUP3 DUP2 DUP4 CALLDATACOPY PUSH1 0x0 DUP4 DUP4 ADD MSTORE POP POP POP JUMP JUMPDEST PUSH1 0x0 PUSH2 0x27D PUSH2 0x278 DUP5 PUSH2 0x22A JUMP JUMPDEST PUSH2 0x114 JUMP JUMPDEST SWAP1 POP DUP3 DUP2 MSTORE PUSH1 0x20 DUP2 ADD DUP5 DUP5 DUP5 ADD GT ISZERO PUSH2 0x299 JUMPI PUSH2 0x298 PUSH2 0x225 JUMP JUMPDEST JUMPDEST PUSH2 0x2A4 DUP5 DUP3 DUP6 PUSH2 0x25B JUMP JUMPDEST POP SWAP4 SWAP3 POP POP POP JUMP JUMPDEST PUSH1 0x0 DUP3 PUSH1 0x1F DUP4 ADD SLT PUSH2 0x2C1 JUMPI PUSH2 0x2C0 PUSH2 0x220 JUMP JUMPDEST JUMPDEST DUP2 CALLDATALOAD PUSH2 0x2D1 DUP5 DUP3 PUSH1 0x20 DUP7 ADD PUSH2 0x26A JUMP JUMPDEST SWAP2 POP POP SWAP3 SWAP2 POP POP JUMP JUMPDEST PUSH1 0x0 PUSH1 0x40 DUP3 DUP5 SUB SLT ISZERO PUSH2 0x2F0 JUMPI PUSH2 0x2EF PUSH2 0x9E JUMP JUMPDEST JUMPDEST PUSH2 0x2FA PUSH1 0x40 PUSH2 0x114 JUMP JUMPDEST SWAP1 POP PUSH1 0x0 PUSH2 0x30A DUP5 DUP3 DUP6 ADD PUSH2 0x20B JUMP JUMPDEST PUSH1 0x0 DUP4 ADD MSTORE POP PUSH1 0x20 DUP3 ADD CALLDATALOAD PUSH8 0xFFFFFFFFFFFFFFFF DUP2 GT ISZERO PUSH2 0x32E JUMPI PUSH2 0x32D PUSH2 0x12F JUMP JUMPDEST JUMPDEST PUSH2 0x33A DUP5 DUP3 DUP6 ADD PUSH2 0x2AC JUMP JUMPDEST PUSH1 0x20 DUP4 ADD MSTORE POP SWAP3 SWAP2 POP POP JUMP JUMPDEST PUSH1 0x0 PUSH1 0x40 DUP3 DUP5 SUB SLT ISZERO PUSH2 0x35C JUMPI PUSH2 0x35B PUSH2 0x9E JUMP JUMPDEST JUMPDEST PUSH2 0x366 PUSH1 0x40 PUSH2 0x114 JUMP JUMPDEST SWAP1 POP PUSH1 0x0 DUP3 ADD CALLDATALOAD PUSH8 0xFFFFFFFFFFFFFFFF DUP2 GT ISZERO PUSH2 0x386 JUMPI PUSH2 0x385 PUSH2 0x12F JUMP JUMPDEST JUMPDEST PUSH2 0x392 DUP5 DUP3 DUP6 ADD PUSH2 0x2DA JUMP JUMPDEST PUSH1 0x0 DUP4 ADD MSTORE POP PUSH1 0x20 PUSH2 0x3A6 DUP5 DUP3 DUP6 ADD PUSH2 0x155 JUMP JUMPDEST PUSH1 0x20 DUP4 ADD MSTORE POP SWAP3 SWAP2 POP POP JUMP JUMPDEST PUSH1 0x3 DUP2 LT PUSH2 0x3BF JUMPI PUSH1 0x0 DUP1 REVERT JUMPDEST POP JUMP JUMPDEST PUSH1 0x0 DUP2 CALLDATALOAD SWAP1 POP PUSH2 0x3D1 DUP2 PUSH2 0x3B2 JUMP JUMPDEST SWAP3 SWAP2 POP POP JUMP JUMPDEST PUSH1 0x0 PUSH2 0x100 DUP3 DUP5 SUB SLT ISZERO PUSH2 0x3EE JUMPI PUSH2 0x3ED PUSH2 0x9E JUMP JUMPDEST JUMPDEST PUSH2 0x3F9 PUSH2 0x100 PUSH2 0x114 JUMP JUMPDEST SWAP1 POP PUSH1 0x0 PUSH2 0x409 DUP5 DUP3 DUP6 ADD PUSH2 0x155 JUMP JUMPDEST PUSH1 0x0 DUP4 ADD MSTORE POP PUSH1 0x20 PUSH2 0x41D DUP5 DUP3 DUP6 ADD PUSH2 0x1B3 JUMP JUMPDEST PUSH1 0x20 DUP4 ADD MSTORE POP PUSH1 0x40 DUP3 ADD CALLDATALOAD PUSH8 0xFFFFFFFFFFFFFFFF DUP2 GT ISZERO PUSH2 0x441 JUMPI PUSH2 0x440 PUSH2 0x12F JUMP JUMPDEST JUMPDEST PUSH2 0x44D DUP5 DUP3 DUP6 ADD PUSH2 0x346 JUMP JUMPDEST PUSH1 0x40 DUP4 ADD MSTORE POP PUSH1 0x60 PUSH2 0x461 DUP5 DUP3 DUP6 ADD PUSH2 0x1B3 JUMP JUMPDEST PUSH1 0x60 DUP4 ADD MSTORE POP PUSH1 0x80 DUP3 ADD CALLDATALOAD PUSH8 0xFFFFFFFFFFFFFFFF DUP2 GT ISZERO PUSH2 0x485 JUMPI PUSH2 0x484 PUSH2 0x12F JUMP JUMPDEST JUMPDEST PUSH2 0x491 DUP5 DUP3 DUP6 ADD PUSH2 0x346 JUMP JUMPDEST PUSH1 0x80 DUP4 ADD MSTORE POP PUSH1 0xA0 PUSH2 0x4A5 DUP5 DUP3 DUP6 ADD PUSH2 0x155 JUMP JUMPDEST PUSH1 0xA0 DUP4 ADD MSTORE POP PUSH1 0xC0 PUSH2 0x4B9 DUP5 DUP3 DUP6 ADD PUSH2 0x155 JUMP JUMPDEST PUSH1 0xC0 DUP4 ADD MSTORE POP PUSH1 0xE0 PUSH2 0x4CD DUP5 DUP3 DUP6 ADD PUSH2 0x3C2 JUMP JUMPDEST PUSH1 0xE0 DUP4 ADD MSTORE POP SWAP3 SWAP2 POP POP JUMP JUMPDEST PUSH1 0x0 DUP1 PUSH1 0x40 DUP4 DUP6 SUB SLT ISZERO PUSH2 0x4F0 JUMPI PUSH2 0x4EF PUSH2 0x94 JUMP JUMPDEST JUMPDEST PUSH1 0x0 DUP4 ADD CALLDATALOAD PUSH8 0xFFFFFFFFFFFFFFFF DUP2 GT ISZERO PUSH2 0x50E JUMPI PUSH2 0x50D PUSH2 0x99 JUMP JUMPDEST JUMPDEST PUSH2 0x51A DUP6 DUP3 DUP7 ADD PUSH2 0x3D7 JUMP JUMPDEST SWAP3 POP POP PUSH1 0x20 PUSH2 0x52B DUP6 DUP3 DUP7 ADD PUSH2 0x3C2 JUMP JUMPDEST SWAP2 POP POP SWAP3 POP SWAP3 SWAP1 POP JUMP JUMPDEST PUSH32 0x4E487B7100000000000000000000000000000000000000000000000000000000 PUSH1 0x0 MSTORE PUSH1 0x21 PUSH1 0x4 MSTORE PUSH1 0x24 PUSH1 0x0 REVERT INVALID LOG2 PUSH5 0x6970667358 0x22 SLT KECCAK256 0x2B CALLDATALOAD 0xB8 PUSH32 0x15046A820F4AD247C6C4CF162B176D49585F4DC5F5B54C22316D776464736F6C PUSH4 0x43000811 STOP CALLER "
		},
		"gasEstimates": {
			"creation": {
				"codeDepositCost": "286800",
				"executionCost": "353",
				"totalCost": "287153"
			},
			"external": {
				"setState(Order.OrderItem,State.stateItem)": "infinite"
			}
		},
		"methodIdentifiers": {
			"setState(Order.OrderItem,State.stateItem)": "9e8e1166"
		}
	},
	"abi": [
		{
			"inputs": [
				{
					"components": [
						{
							"internalType": "uint256",
							"name": "id",
							"type": "uint256"
						},
						{
							"internalType": "address payable",
							"name": "seller",
							"type": "address"
						},
						{
							"components": [
								{
									"components": [
										{
											"internalType": "bytes4",
											"name": "assetClass",
											"type": "bytes4"
										},
										{
											"internalType": "bytes",
											"name": "data",
											"type": "bytes"
										}
									],
									"internalType": "struct LibAsset.AssetType",
									"name": "assetType",
									"type": "tuple"
								},
								{
									"internalType": "uint256",
									"name": "value",
									"type": "uint256"
								}
							],
							"internalType": "struct LibAsset.Asset",
							"name": "sellerAsset",
							"type": "tuple"
						},
						{
							"internalType": "address payable",
							"name": "buyer",
							"type": "address"
						},
						{
							"components": [
								{
									"components": [
										{
											"internalType": "bytes4",
											"name": "assetClass",
											"type": "bytes4"
										},
										{
											"internalType": "bytes",
											"name": "data",
											"type": "bytes"
										}
									],
									"internalType": "struct LibAsset.AssetType",
									"name": "assetType",
									"type": "tuple"
								},
								{
									"internalType": "uint256",
									"name": "value",
									"type": "uint256"
								}
							],
							"internalType": "struct LibAsset.Asset",
							"name": "buyerAsset",
							"type": "tuple"
						},
						{
							"internalType": "uint256",
							"name": "start",
							"type": "uint256"
						},
						{
							"internalType": "uint256",
							"name": "end",
							"type": "uint256"
						},
						{
							"internalType": "enum State.stateItem",
							"name": "state",
							"type": "State.stateItem"
						}
					],
					"internalType": "struct Order.OrderItem",
					"name": "_order",
					"type": "tuple"
				},
				{
					"internalType": "enum State.stateItem",
					"name": "_state",
					"type": "State.stateItem"
				}
			],
			"name": "setState",
			"outputs": [],
			"stateMutability": "pure",
			"type": "function"
		}
	]
}